:020000040800F2
:10000000B816002021020008111400080D14000881
:100010000F1400088B0300080D18000800000000F2
:10002000000000000000000000000000890100083E
:10003000BD03000800000000CD0100088114000885
:100040003B0200083B0200083B0200083B0200089C
:100050003B0200083B020008BF0300083B02000807
:100060003B0200083B0200083B0200083B0200087C
:100070003B0200083B0200083B0200083B0200086C
:100080003B0200083B0200083B0200083B0200085C
:100090003B0200083B0200083B0200083B0200084C
:1000A0003B0200083B0200083B0200083B0200083C
:1000B0003B0200083B020008011500083B02000853
:1000C0003B0200083B0200083B0200083B0200081C
:1000D0003B020008011800083B0200083B02000830
:1000E0003B0200083B0200083B02000800F002F857
:1000F00000F03AF80AA090E8000C82448344AAF188
:100100000107DA4501D100F02FF8AFF2090EBAE885
:100110000F0013F0010F18BFFB1A43F0010318473B
:10012000F823000018240000103A24BF78C878C1D2
:10013000FAD8520724BF30C830C144BF04680C60ED
:10014000704700000023002400250026103A28BF35
:1001500078C1FBD8520728BF30C148BF0B60704739
:100160001FB51FBD10B510BD00F0D6F81146FFF742
:10017000F7FF01F05DFB00F0F4F803B4FFF7F2FFC6
:1001800003BC00F0FBF80000224B19680868B0E8D7
:10019000F00F80F30988BFF36F8F4FF0000080F3FA
:1001A00011884EF00D0E70470000000006480068F0
:1001B000006880F3088862B661B6BFF34F8FBFF363
:1001C0006F8F00DF00BF00BF08ED00E0EFF3098094
:1001D000BFF36F8F0F4B1A6820E9F00F106008B55E
:1001E0004FF0500080F31188BFF34F8FBFF36F8F34
:1001F00001F084FF4FF0000080F31188BDE8084053
:1002000019680868B0E8F00F80F30988BFF36F8FB2
:10021000704700BF24000020EFF305807047000006
:100220000948804709480047FEE7FEE7FEE7FEE78A
:10023000FEE7FEE7FEE7FEE7FEE7FEE704480549C6
:10024000054A064B70470000FD140008ED00000849
:10025000B8100020B8160020B8120020B8120020F4
:1002600010B5203AC0F00B80B1E81850203AA0E851
:100270001850B1E81850A0E81850BFF4F5AF5FEA85
:10028000027C24BFB1E81850A0E8185044BF18C938
:1002900018C0BDE810405FEA827C24BF51F8043BDF
:1002A00040F8043B08BF7047D20728BF31F8023B33
:1002B00048BF11F8012B28BF20F8023B48BF00F8C7
:1002C000012B70474FF0000200B513469446964646
:1002D000203922BFA0E80C50A0E80C50B1F1200159
:1002E000BFF4F7AF090728BFA0E80C5048BF0CC007
:1002F0005DF804EB890028BF40F8042B08BF704765
:1003000048BF20F8022B11F0804F18BF00F8012BD6
:100310007047704770477047754600F02BF8AE463F
:1003200005006946534620F00700854618B020B501
:10033000FFF784FFBDE820404FF000064FF00007B4
:100340004FF000084FF0000B21F00701AC46ACE87D
:10035000C009ACE8C009ACE8C009ACE8C0098D46EA
:10036000704710B50446AFF300802046BDE810404A
:10037000FFF703BF004870475810002001491820BC
:10038000ABBEFEE7260002007047FEE7094D4FF4C2
:100390007A74002001F04CFE064964230122891C76
:1003A000054800F0E5FF204600F07CF8E86801F021
:1003B000CBFDEEE700000020840000207047012004
:1003C00000F096B810B590F821100022022905D04F
:1003D0000421816380F82020012010BD01680B6892
:1003E00023F00E030B6001680B6823F001030B6020
:1003F00090F84030C46B012101FA03F3636080F888
:10040000211080F82020104610BD000010B590F893
:1004100021100024022903D00421816301243DE03E
:1004200001680A6822F00E020A6001680A6822F078
:1004300001020A601A4A0168914201D1012121E0BA
:10044000174A1432914201D110211BE0144A28327C
:10045000914201D1891515E0114A3C32914201D1F6
:1004600089140FE00E4A5032914202D14FF480318C
:1004700008E00B4A6432914202D14FF4801101E04E
:100480004FF08071064A083A5160012180F821102E
:10049000002180F82010416B01B18847204610BD33
:1004A0000800024070B5044600F01EF90546601CC5
:1004B00002D004480078044400F016F9401BA04222
:1004C000FAD370BD14000020074810B5006901F090
:1004D000B5FF002807D005494FF080500860BFF3F2
:1004E0004F8FBFF36F8F10BD0000002004ED00E0C0
:1004F000044910B50A68024202D00860FFF7E4FF21
:1005000010BD0000140401402DE9F84FDFF8B89148
:100510000024A9F1040B23460F2709F1040AABF1CB
:10052000040EC9E00125A5402A40AA427DD1674EAC
:10053000D1F804C0ACEB0608B44532D014DCBCF1F1
:10054000030F3AD009DCBCF1000F2AD0BCF1010F37
:100550001CD0BCF1020F31D11DE0BCF1110F17D03E
:10056000BCF1120F2AD119E0B8F5881F19D006DCAA
:10057000B8F5803F15D0B8F5801F1FD111E0B8F550
:10058000001F0ED0B8F5041F18D10AE0CB6815E0A3
:10059000CB681B1D12E0CB6808330FE0CB680C332F
:1005A0000CE08B682BB1012B4FF0080303D04561A1
:1005B00004E0042302E0056100E00023FF2A01D8E3
:1005C000064601E000F104064FEA840501D9A5F1D1
:1005D0002005D6F8008007FA05FC28EA0C0803FA83
:1005E00005F548EA0508C6F800804D68ED0062D5BB
:1005F000374DAE6946F00106AE61AD6924F00306E1
:1006000005F001050095334D06EB050CDCF80850AC
:10061000A607360F07FA06F825EA0805DFF8B880BE
:10062000404503D14FF0000817E044E0DFF8AC800C
:10063000404502D14FF001080FE0DFF8A4804045AB
:1006400002D14FF0020808E0DFF89880404502D15F
:100650004FF0030801E04FF0040808FA06F848EAF2
:100660000508CCF808804D68D9F80060ED024D46C9
:1006700001D5164300E096432E604D68DAF800601D
:10068000AD02554601D5164300E096432E604D68F5
:10069000DBF80060AD035D4601D5164300E09643EC
:1006A0002E604D68DEF80060ED03754601D51643F7
:1006B00000E096432E60641C0D682A46E5407FF4F6
:1006C00031AFBDE8F88F00000804014000001110B0
:1006D000001002400000014000080140000C0140F1
:1006E000001001400014014001488068704700007C
:1006F000140000200248816802781144816070472C
:1007000014000020074810B5016841F01001016095
:10071000032000F0A7F80F2000F006F800F050F8D2
:10072000002010BD0020024030B505461F4887B0AC
:10073000C16941F00401C161C06906A900F004006B
:10074000009001A800F036F90498B0B100F052F919
:1007500040001749174AB0FBF1F11748491E0260E3
:10076000416040F2E7320021C0E9032181608161EC
:1007700000F018FB040003D015E000F03BF9E8E7B7
:100780000D4800F03DFB04000DD11E2000F03CF8A8
:10079000102D07D2002229461E2000F043F80748FA
:1007A000056000E0012407B0204630BD0010024083
:1007B00040420F00000800402003002018000020E5
:1007C0000F4808B5816941F001018161816901F03B
:1007D00001010091C16941F08051C161C0690022ED
:1007E00000F0805000900F21901E00F01BF805488B
:1007F000416821F0E06141F00071416008BD0000F6
:100800000010024000000140002809DB00F01F0238
:10081000012191404009800000F1E020C0F8001162
:1008200070470000F0B40E4B1B680C46C3F3022364
:10083000C3F10705042D00D90425191D072901D28C
:10084000002300E0DB1E012606FA05F1491E2140C7
:1008500099409E40761E16403143F0BC00F0D7BF51
:100860000CED00E0064900F0070208684FF6FF03B0
:10087000184040EA0220034A104308607047000015
:100880000CED00E00000FA052DE9F0470F460500E9
:1008900061D0434E306800F00700B84209D230689A
:1008A00020F0070038433060306800F00700B8429D
:1008B00051D128683B4C810712D5400703D56068A9
:1008C00040F4E06060602878000703D5606840F479
:1008D000605060606068A96820F0F00008436060C4
:1008E0002878C00728D06868012810D0216802281D
:1008F00010D0890700292EDA616821F00301014335
:100900006160FFF7F1FE804641F288390DE0216811
:100910008903EFE78901EDE7FFF7E6FEA0EB0801A9
:10092000494502D90320BDE8F0876068696800F096
:100930000C00B0EB810FEFD1306800F00700B84237
:100940000BD9306820F0070038433060306800F081
:100950000700B84201D00120E5E72878400705D517
:100960006068E96820F4E060084360602878000768
:1009700006D56068296920F4605040EAC1006060D3
:1009800000F058F86168084AC1F30311515CC8408F
:100990000649086006480068FFF7C6FE0020C2E767
:1009A0000020024000100240F22400082000002035
:1009B000180000200F2202600C4A536803F0030362
:1009C0004360536803F0F0038360536803F4E0630B
:1009D000C36052684FF4E06303EAD2020261044844
:1009E000006800F007000860704700000010024037
:1009F000002002400448054900684968044AC1F3E0
:100A00000221515CC84070472000002000100240C5
:100A1000022500080448054900684968044AC1F3F2
:100A2000C221515CC84070472000002000100240E5
:100A3000022500080E4A51680E4801F00C03042BF1
:100A400011D0082B0FD10C48C1F38343C903C05CFC
:100A50000AD55168084AC1F34041921E515C054ACB
:100A60005043B0FBF1F07047044948437047000021
:100A70000010024000127A00E224000800093D0044
:100A80002DE9F84F040070D02078C04DC00749D040
:100A90006868C0F38100012807D06868C0F381004E
:100AA000022809D16868C00306D52868800339D5B3
:100AB00060680028E7D035E06068B0F5803F0BD073
:100AC00010B1B0F5A02F11D0286820F48030286034
:100AD000286820F4802002E0286840F480302860F4
:100AE000606890B1FFF700FE06460AE0286840F40F
:100AF00080202860F0E700BFFFF7F6FD801B642828
:100B000073D828688003F7D50CE0FFF7EDFD0646A3
:100B100005E000BFFFF7E8FD801B6428F0D82868D7
:100B20008003F7D420789A4E80074FF001094FF0E8
:100B3000000839D5686810F00C0F07D06868C0F35A
:100B40008100022809D16868C00306D4286880079C
:100B500014D52069012808D110E02069B0B1C6F889
:100B60000090FFF7C1FD074605E00AE1FFF7BCFD75
:100B7000C01B0228C4D828688007F7D52868616997
:100B800020F0F80040EAC10028600DE0C6F80080BF
:100B9000FFF7AAFD074604E0FFF7A6FDC01B0228E9
:100BA00023D828688007F7D4207800072CD5794807
:100BB000A169D9B1C0F80090FFF796FD074604E09F
:100BC000FFF792FDC01B02280FD8686A8007F7D58F
:100BD00071484FF4FA510068B0FBF1F0009000BF8B
:100BE0000098411E0091FAD20EE080E0C0F800802B
:100BF000FFF77AFD074604E0FFF776FDC01B0228E9
:100C000075D8686A8007F7D42078400760D5E8690E
:100C10000027C00008D4E86940F08050E861E86926
:100C2000012700F0805000905C480168C90513D48A
:100C30000168834641F480710160FFF755FD8246EB
:100C400006E000BFFFF750FDA0EB0A0064284ED875
:100C5000DBF80000C005F5D5E06801280AD008B12E
:100C6000052813D0286A20F001002862286A20F0A5
:100C7000040002E0286A40F001002862E06841F2C6
:100C8000883B98B1FFF730FD82460BE0286A40F0C0
:100C900004002862EEE700BFFFF726FDA0EB0A0183
:100CA00059455AD8286A8007F6D50CE0FFF71CFD95
:100CB000824605E0FFF718FDA0EB0A0159454CD824
:100CC000286A8007F6D41FB1E86920F08050E861F7
:100CD000E06988B36968C1F38101022944D0022820
:100CE000C6F8608004D0FFF7FFFC044638E034E02B
:100CF000FFF7FAFC074604E0FFF7F6FCC01B0228EA
:100D00002BD828688001F7D4206AB0F5803F05D140
:100D10006868A16820F4003008436860D4E90801DD
:100D20000843696821F4741108436860C6F860904C
:100D3000FFF7DAFC044606E025E000BFFFF7D4FC2D
:100D4000001B022809D828688001F7D51BE000BFE6
:100D5000FFF7CAFC001B022802D90320BDE8F88F68
:100D600028688001F4D40EE00128F7D06868226A70
:100D700000F48031914204D1616A00F4701088421D
:100D800001D00120EAE70020E8E70000001002405F
:100D900000004242800442422000002000700040D7
:100DA0007047704710B5040003D094F83D0010B1AF
:100DB00007E0012010BD002084F83C00204600F030
:100DC0001EF8022084F83D00211D206800F09EFBE3
:100DD000012084F8460084F83E0084F83F0084F83F
:100DE000400084F8410084F8420084F8430084F80D
:100DF000440084F8450084F83D00002010BD704791
:100E000090F83D10012901D001207047022180F89F
:100E10003D100168CA6842F00102CA6000680B49CF
:100E2000884208D0B0F1804F05D00949884202D0ED
:100E30000849884204D1816801F00701062903D0DE
:100E4000016841F00101016000207047002C014061
:100E50000004004000080040704770B50446006878
:100E600001694FF00005C943890715D4C168C9431A
:100E7000890711D4E91E016101202077206880696B
:100E80008007204602D0FFF7E7FF04E000F098F863
:100E9000204600F096F8257720680169C943490784
:100EA00017D4C168C943490713D46FF00401016125
:100EB000022020772068806910F4407F204602D00D
:100EC000FFF7CAFF04E000F07BF8204600F079F855
:100ED000257720680169C943090716D4C168C94349
:100EE000090712D46FF008010161042020772068FF
:100EF000C0698007204602D0FFF7AEFF04E000F093
:100F00005FF8204600F05DF8257720680169C94345
:100F1000C90617D4C168C943C90613D46FF01001BC
:100F20000161082020772068C06910F4407F2046C6
:100F300002D0FFF791FF04E000F042F8204600F0F5
:100F400040F8257720680169C943C90708D1C168FD
:100F5000C943C90704D1891E0161204600F032F857
:100F600020680169C943090609D4C168C943090653
:100F700005D46FF0800101612046FFF711FF206862
:100F80000169C943490609D4C168C943490605D462
:100F90006FF040010161204600F01EF820680169F1
:100FA000C94389060BD4C168C943890607D46FF0C9
:100FB000200101612046BDE87040FFF7F2BE70BD20
:100FC0007047704700680349884201D1FFF792BB20
:100FD00070470000000800407047704770470000ED
:100FE000F8B5016804460868CA684B6910F00F0F2D
:100FF0004FF0000559D003F0010602F49077374313
:1010000065D0C10705D0D10503D5616C41F0010160
:101010006164410705D5D90703D0616C41F0020135
:101020006164810705D5D90703D0616C41F00401E3
:101030006164010707D502F02001314303D0616CE0
:1010400041F008016164616C00293AD0800604D542
:10105000900602D5204600F0BEFA20684069616C17
:10106000C0F38010090700D460B3204600F08CFA6A
:1010700020684069400621D52068143050E8001FE0
:1010800021F0400140E80012002AF5D1E06BA8B140
:101090006D494163E06BFFF7B9F9002811D0E06BAF
:1010A000416B01B0BDE8F040084783060FD59306B9
:1010B0000DD52046BDE8F84000F08DBA2046FFF778
:1010C0008DFFF8BD2046FFF789FF6564F8BD266BEC
:1010D0002023012E7CD1C6067AD5D60678D508689D
:1010E0004868009048694FF00206400640D5E16B21
:1010F000086840680004000CE8D0A28D8242E5D95F
:10110000E085886920282DD020680C3050E8001F29
:1011100021F4807140E80012002AF5D120681430D3
:1011200050E8001F21F0010140E80012002AF5D12B
:101130002068143050E8001F21F0400140E8001200
:10114000002AF5D184F84230256320680C3050E83D
:10115000001F21F0100140E80012002AF5D1E06BD9
:10116000FFF730F96663A08DE18D401A81B22AE065
:10117000A08DE18D401A81B2E08D0028A6D0002913
:10118000A4D022680C3252E8000F20F4907042E89C
:101190000007002FF5D12068143050E8002F22F00E
:1011A000010240E80027002FF5D184F84230256382
:1011B00020680C3050E8002F22F0100240E8002395
:1011C000002BF5D166632046FFF707FFF8BDFFE768
:1011D00005062BD5150629D594F841002128F5D10F
:1011E000A068B0F5805F01D12069B0B1206A411CD0
:1011F0002162216800784860E08C401E0004000CE9
:10120000E084E3D12068C16821F08001C1602068DA
:10121000C16841F04001C160D8E7206A0088C0F38E
:1012200008004860206A801C2062E5E74006CDD5B2
:101230005006CBD5CA68204622F04002CA6084F826
:10124000413000F0E2F8C1E77915000870B50400FC
:1012500004D094F84100002510B106E0012070BDD3
:1012600084F84050204600F023F8242084F8410000
:101270002068C16821F40051C160204600F00CFADA
:101280002068016921F4904101612068416921F0E1
:101290002A0141612068C16841F40051C160656460
:1012A000202084F8410084F842006563002070BD6E
:1012B00030B585B000240094019402940394006832
:1012C000184988422CD11848816941F480418161D4
:1012D000816901F480410491816941F004018161D7
:1012E0008069124D00F0040004904FF400700090EB
:1012F000022001900320039069462846FFF704F975
:101300002815CDE90004694628460294FFF7FCF849
:10131000002205212520FFF785FA2520FFF774FA22
:1013200005B030BD00380140001002400008014007
:1013300090F84230202B01D00220704721B11AB121
:101340000023036300F004BA0120704710B50122A6
:1013500005490648FFF7ECFF0348001F01793029D3
:1013600001D10021C17010BD0400002084000020C4
:101370002DE9F843044690F841001F4616460D46F5
:10138000202802D00220BDE8F8837DB176B100208C
:101390006064212084F84100FFF7A6F9A684804606
:1013A000E684A068B0F5805F02D003E00120EAE7A0
:1013B000206910B12E4600250EE000260CE08021A9
:1013C000204600F0E0F9A0B9AEB116F8010B216893
:1013D0004860E08C401EE084E08C43464FF0000201
:1013E00000970028EBD14FF04001204600F0CBF9E8
:1013F00030B10320C7E735F8020BC0F30800E6E779
:10140000202084F841000020BDE77047FEE7FEE79A
:10141000FEE700000C4C01254FF47A76002000F026
:1014200007FE094964230122491C0848FFF7A0FF71
:10143000E0780128FCD0E5703046FFF733F8A0686B
:1014400000F082FDEAE70000000000208400002098
:10145000094D4FF47A74002000F0EAFD6423012264
:1014600005490648FFF784FF2046FFF71BF8286967
:1014700000F06AFDEFE7000000000020840000207B
:1014800010B5502080F31188BFF34F8FBFF36F8FDB
:1014900000F00EFF18B104494FF0805008600020A2
:1014A00080F3118810BD000004ED00E010B590B08D
:1014B00028216846FEF706FF14210AA8FEF702FF5E
:1014C0000220009001200490102000240590079431
:1014D0006846FFF7D5FA08B172B6FEE70F20CDE9EE
:1014E0000A040C940D9400210AA80E94FFF7CCF97D
:1014F000002801D072B6FEE710B010BD70470000A2
:101500000148FFF7AABC000020030020F0B50268E4
:10151000164B174C174D4FF08047984205D0B842F4
:1015200003D0A04201D0A84203D122F070064A683D
:101530003243984205D0B84203D0A04201D0A8421D
:1015400003D122F44074CA6822434C6922F080021D
:10155000224302608A68C2620A688262984201D1AC
:101560000969016301214161F0BD0000002C0140C7
:10157000000400400008004010B5406A0021C18509
:10158000C184FFF72BFD10BD01680C3151E8002F1D
:1015900022F4907241E80023002BF5D10168143148
:1015A00051E8002F22F0010241E80023002BF5D181
:1015B000016B012909D101680C3151E8002F22F09B
:1015C000100241E80023002BF5D1202180F84210C1
:1015D00000210163704708B590F84210222901D01C
:1015E000022008BD82684FF480539A4201D10169FC
:1015F00021B1816A9A421BD04AB10AE00268816A2D
:101600005268C2F308020A80816A891C08E00269F4
:1016100072B10268526802F07F020A70816A491C46
:101620008162C18D491E0904090CC18503D01BE0EC
:1016300002685268F1E70168CA6822F02002CA60B5
:101640000168CA6822F48072CA6001684A6922F09F
:1016500001024A61202180F8421000214163026B9F
:10166000012A03D0FFF772FE002008BD0163016864
:101670000C3151E8002F22F0100241E80023002B2A
:10168000F5D101680A68D20602D50A684968009156
:10169000818DFFF7A2FCE7E770B504460068016999
:1016A000E26821F44051114301612169A0680843B7
:1016B000616908432168CA6841F20C639A43024396
:1016C000CA6020684169A26921F4407111434161F7
:1016D0001E492068884202D1FFF79CF901E0FFF71C
:1016E00089F900EBC00101EB001260686421800001
:1016F000B2FBF0F3B3FBF1F36FF018067343B2FBE8
:10170000F0F5B2FBF0F605EB8305322303EB05158C
:10171000B5FBF1F5B6FBF1F605F0F00505EB0615A6
:10172000B2FBF0F6B2FBF0F0B0FBF1F06FF0180294
:10173000504306EB800003EB0010B0FBF1F0216892
:1017400000F00F002844886070BD000000380140A0
:1017500081628285C28500214164222180F8421085
:10176000016921B10168CA6842F48072CA600168E7
:101770004A6942F001024A610068C16841F02001F3
:10178000C160002070472DE9F041984617460E468B
:101790000446069D27E0681C25D02DB1FEF7A4FF66
:1017A000A0EB0800A8421ED920680C3050E8001FAA
:1017B00021F4D07140E80012002AF5D120681430DD
:1017C00050E8001F21F0010140E80012002AF5D185
:1017D000202084F8410084F84200002084F8400072
:1017E0000320BDE8F0812068006836EA000004D0DC
:1017F0000020B842CFD00020F3E70120F9E7000035
:101800000148FFF7EDBB000084000020FEE7090758
:10181000090E002804DB00F1E02080F80014704776
:1018200000F00F0000F1E02080F8141D7047000068
:101830008EB0FEF767FFFFF739FE2F4800240C94A7
:10184000816941F008018161816901F0080100911D
:10185000816941F0040181618069284900F0040038
:1018600000900120CDE909010B9009A92448FEF759
:101870004BFE002205210620FEF7D4FF0620FEF7CE
:10188000C3FF21481F4901604FF4E131C0E9011451
:101890000C21C460C0E904418461C461FFF7D6FC37
:1018A00008B172B6FEE7012218491748FFF740FD5C
:1018B0001C22174902A8FEF7D3FC002102A800F061
:1018C00040F812490023091F4FF41C72886001F18F
:1018D0000C00CDE900400FA1104800F091FC0B482E
:1018E00000230C30CDE9004080220DA10E4800F00D
:1018F00087FC00F021F8FEE70010024000002110F4
:10190000000C014000380140840000200400002049
:10191000C42400085461736B3032000015140008B1
:101920005461736B303300008D03000801460020C2
:10193000842900D0C81C704710B500F043FB00207C
:1019400010BD7FB50D4604464169B0F9080081B16C
:10195000A16971B1FFF7EAFFD4E905128DE807002C
:10196000D4E900102B46226900F077FC039004B004
:1019700070BDFFF7DBFF03A9CDE90001208A2B46EC
:1019800082B2D4E9001000F03BFC012801D0002015
:10199000EDE70398EBE700002DE9F041054600F084
:1019A00035FA2E4C2069401C206120682C4F10B164
:1019B000E06940B32DE025602069012829D1002687
:1019C00006EB860007EB800000F006FA761C072E77
:1019D000F6D323488C3000F0FFF92148A03000F006
:1019E000FBF91F48B43000F0F7F91D48C83000F08B
:1019F000F3F91B48DC3000F0EFF919488C306060D7
:101A00001430A06005E02068E96AC06A884200D806
:101A10002560E06A401CE062E96A0120A269884012
:101A20001043A06101EB810007EB8000291D00F04D
:101A3000E1F900F00BFAE06900280CD02068E96AAF
:101A4000C06A884207D207494FF080500860BFF350
:101A50004F8FBFF36F8FBDE8F0810000240000209E
:101A60006803002004ED00E010B5044690F8510032
:101A700058B101280CD002280FD0502080F31188D3
:101A8000BFF34F8FBFF36F8FFEE7206B00F0F2F9CB
:101A90002046BDE8104000F0EDB910BD10484FF4ED
:101AA0004061420706D0C01D0D4920F00700411AD1
:101AB000C1F540610B4A00230144C2E90003083923
:101AC000103A21F0070111604B600B600B1AC0E95E
:101AD000001393604FF000405360D06070470000E7
:101AE0005804002070000020144E154CA6F1C807C1
:101AF0004FF08058DFF84C9012E000BF00F086F9FC
:101B0000F068C568281D00F049F92069401E206171
:101B1000E068401EE06000F099F92846FFF7A4FF56
:101B2000E0680028EAD138680128F9D9C9F80080AE
:101B3000BFF34F8FBFF36F8FF2E700003004002038
:101B40002400002004ED00E02DE9F0479A46DDE98D
:101B5000098481466FF00303206B03EB820210447B
:101B6000089D20F00706700707D0502080F31188E9
:101B7000BFF34F8FBFF36F8FFEE723180A5C83F824
:101B800034200A5C12B1401C1028F6D3002784F8D8
:101B90004370072D00D30625E562C4E91157201DC7
:101BA00000F025F904F1180000F021F92461C5F1D5
:101BB00007006462A061E76484F8507052464946A9
:101BC000304600F0D9F82060B8F1000F01D0C8F815
:101BD0000040BDE8F087000030B5114900E0114633
:101BE0000A688242FBD34B685C18844203D1406888
:101BF00018444860084643681C18944209D1084CB0
:101C0000103C2468A24209D052681A4442600A6813
:101C100012680260814200D0086030BD0460F9E7BC
:101C20007000002006484168096829B14168C96808
:101C3000C9684968016370474FF0FF31FAE7000057
:101C40002400002008484068401C4FF0500080F3FA
:101C5000118804D0BFF34F8FBFF36F8FFEE7BFF340
:101C60004F8FBFF36F8FFEE778000020002150B147
:101C70000A4B42699A420FD1806AA3F1280290422E
:101C80000AD040B108E0502080F31188BFF34F8F95
:101C9000BFF36F8FFEE70121084670474404002020
:101CA0002DE9F0410546002700F020FA314E30685A
:101CB00008B9FFF7F3FEF06805424BD1C5B308350C
:101CC00068070ED005F00700C0F10800054468075A
:101CD00007D0502080F31188BFF34F8FBFF36F8F71
:101CE000FEE72DB37068854234D822481030014693
:101CF0000C6801E020460C466168A94202D22168C6
:101D00000029F7D131688C4224D00768216801602E
:101D100060680837411B10290FD96019420708D0A5
:101D2000502080F31188BFF34F8FBFF36F8FFEE712
:101D300010E041606560FFF74FFF61687068401A0E
:101D40007060B268904200D2B060F0680143002039
:101D5000C4E9000100F010FB780707D0502080F3A1
:101D60001188BFF34F8FBFF36F8FFEE73846BDE892
:101D7000F08100006000002010B5031F4FF0807458
:101D80001C601B1F21F001011960191F024B0B6021
:101D9000143940380A6010BD451C0008D0E90132F2
:101DA00001699A60D0E901235A604A68824201D1F0
:101DB00082684A60002202610868401E0860086864
:101DC00070470000034B036003F15400086080205B
:101DD00010607047CC00002000F108014FF0FF3286
:101DE000C0E90112C160016100210160704700215A
:101DF0000161704742684A6093688B6093685960DC
:101E0000916008610168491C01607047502080F3AF
:101E10001188BFF34F8FBFF36F8F0A494868401C8A
:101E2000486001280CD10848006810F0FF0F07D067
:101E3000502080F31188BFF34F8FBFF36F8FFEE701
:101E4000704700007800002004ED00E00849486871
:101E500028B1401E486001D180F31188704750209E
:101E600080F31188BFF34F8FBFF36F8FFEE7000041
:101E70007800002070B5002827D0144DA0F1080488
:101E80006168E868014207D1502080F31188BFF3F0
:101E90004F8FBFF36F8FFEE722683AB1502080F377
:101EA0001188BFF34F8FBFF36F8FFEE781436160EF
:101EB00000F01CF960686968084468602046FFF714
:101EC0008BFEBDE8704000F057BA70BD6000002086
:101ED0004FF0E02000210161816105494FF47A72E1
:101EE0000968B1FBF2F1491E4161072101617047A8
:101EF0002000002010B5FEF78FF9114910280ED3ED
:101F000000F1E02090F8F0030A78904207D25020C8
:101F100080F31188BFF34F8FBFF36F8FFEE709483F
:101F20000068896800F4E060884207D9502080F397
:101F30001188BFF34F8FBFF36F8FFEE710BD000016
:101F4000780000200CED00E070B504002BD01A4D95
:101F5000286884422FD0FFF759FF2046FFF786FEFE
:101F6000E8B1201DFFF71AFFE06A0121AA6981404C
:101F70001143A961114900EB800001EB8000211D94
:101F8000FFF738FFE06A2968C96A884207D30C491D
:101F90004FF080500860BFF34F8FBFF36F8FBDE8E5
:101FA0007040FFF753BF502080F31188BFF34F8F6D
:101FB000BFF36F8FFEE770BD240000206803002090
:101FC00004ED00E010B586B00024039405AA04A92E
:101FD00003A80494FFF7F6FEDDE903010094CDE9C0
:101FE000011000230EA11048059A00F036F90F49A0
:101FF0000028486311D0502080F31188BFF34F8F21
:10200000BFF36F8F4FF0FF3008630120C8614C6150
:1020100006B0BDE8104000F09FB806B010BD00004B
:1020200049444C4500000000E91A00082400002043
:1020300070B50446FFF7EAFE294D04B92C68201D4F
:10204000FFF7ACFE58B9E06A264A00EB800152F86F
:10205000211021B901218140A8698843A861A06AA3
:1020600018B104F11800FFF799FE1E48211DDC305D
:10207000FFF7C0FE94F850000026012801D184F833
:102080005060FFF7E3FEE86928B1FFF7BFFEFFF7F6
:10209000C9FDFFF7DBFE2868844213D1E86990B1DF
:1020A000A86B38B1502080F31188BFF34F8FBFF376
:1020B0006F8FFEE70C494FF080500860BFF34F8FE1
:1020C000BFF36F8F70BD0748DC3000682969884214
:1020D00001D12E6070BDBDE8704000F00FB8000067
:1020E000240000206803002004ED00E00248816B1A
:1020F000491C816370470000240000201448816B54
:1021000011B1012141627047002141628169B1FA38
:1021100081F1C1F11F0101EB81020E4951F822301A
:102120006BB101EB820101F108034A6852684A6011
:102130009A4201D152684A60D168016070475020CC
:1021400080F31188BFF34F8FBFF36F8FFEE700005E
:1021500024000020680300201CB52649087801905F
:10216000FF20087008788DF800009DF800009DF8A9
:10217000002000F0F000904207D0502080F311883A
:10218000BFF34F8FBFF36F8FFEE79DF800001A4B30
:1021900000F0500018700720986005E09DF80020BE
:1021A00052008DF80020401E9DF800201206F5D444
:1021B0009860032807D0502080F31188BFF34F8F19
:1021C000BFF36F8FFEE74FF440709860019808707E
:1021D0000A48016841F470010160016841F07041F2
:1021E0000160FFF775FE00205860FDF7DFFF00205B
:1021F0001CBD000000E400E07800002020ED00E0BD
:102200002DE9FF5F8346DDE90E87994616468A462B
:102210009000FFF745FD05001CD05420FFF740FD5E
:10222000040014D00020256384F85100CDE9024059
:10223000CDE900874B46324651465846FFF784FCAD
:102240002046FFF7A9FB012004B0BDE8F09F284617
:10225000FFF710FE4FF0FF30F6E7F0B585B0DDE98F
:102260000B640A9DA6B1DCB15427009726630226B1
:1022700084F85160002604AFCDE90246CDE900574D
:10228000FFF762FC2046FFF787FB049805B0F0BD1E
:10229000502080F31188BFF34F8FBFF36F8FFEE79D
:1022A000502080F31188BFF34F8FBFF36F8FFEE78D
:1022B0002DE9F0412E4C0027A06B40B1206A401C54
:1022C0002062606A00B101273846BDE8F081666986
:1022D000761C666113D16068006838B1502080F3C5
:1022E0001188BFF34F8FBFF36F8FFEE76068A1685F
:1022F0006160A060A06A401CA062FFF793FC206BA5
:10230000DFF87080864209D36068006880B1606839
:10231000C068C568686886420DD220632068C06ABC
:1023200000EB800158F821000128CAD90127C8E72D
:102330004FF0FF30F1E7281DFFF730FDA86A18B114
:1023400005F11800FFF72AFDE86A0121A269814022
:102350001143A16100EB800108EB8100291DFFF70B
:1023600049FDE86A2168C96A8842CDD30127CBE7D5
:1023700024000020680300202DE9F0472C4D0024A4
:102380002746A86B38B1FFF741FDA86B401EA86334
:10239000A86B40B146E0502080F31188BFF34F8F07
:1023A000BFF36F8FFEE72969224E0120D1B3A6F15A
:1023B000B40980463068E8B1F068C46804F11800D8
:1023C000FFF7ECFC201DFFF7E9FCE06AAA6908FAB8
:1023D00000F11143A96100EB800109EB8100211D8F
:1023E000FFF708FDE06A2968C96A8842E2D3C5F8A8
:1023F0002480DFE70CB1FFF715FC2C6A44B1464698
:10240000FFF756FF00B16E62641EF9D1002028620A
:10241000686A38B10849012738070860BFF34F8F51
:10242000BFF36F8FFFF712FD3846BDE8F08700005D
:10243000240000201C04002004ED00E02DE9F04100
:102440000027040015D0FFF755FD5020EFF311854C
:1024500080F31188BFF34F8FBFF36F8F2046FFF7D4
:1024600005FC30B3154EB06B58B104F11801144897
:102470001DE0502080F31188BFF34F8FBFF36F8FA3
:10248000FEE7E06A3168C96A884200D30127201D4F
:10249000FFF784FCE16A0120B26988401043B06113
:1024A00001EB81000649B43901EB8000211DFFF7E3
:1024B000A1FC85F311883846BDE8F0812400002096
:1024C0001C0400200C250008511400080000000026
:1024D000000000008000000000000000000000007C
:1024E000010202030405060708090A0B0C0D0E0F72
:1024F00010100000000000000000010203040607A5
:102500000809000000000102030400006465666120
:10251000756C745461736B0038250008000000204E
:102520008400000028010008BC2500088400002069
:102530003416000044010008313032010000000070
:10254000000000000000000000000000010000008A
:1025500010000000000000000024F4000000000053
:10256000000000000000000000000000000000006B
:10257000000000000000000000000000000000005B
:10258000000000000000000000000000000000004B
:10259000000000000000000000000000000000003B
:1025A000000000000000000000000000000000002B
:0C25B00000000000AAAAAAAA0000000077
:04000005080000ED02
:00000001FF
